{
  "contractName": "PokePoke",
  "abi": [
    {
      "inputs": [
        {
          "internalType": "address",
          "name": "",
          "type": "address"
        },
        {
          "internalType": "uint256",
          "name": "",
          "type": "uint256"
        }
      ],
      "name": "pokes",
      "outputs": [
        {
          "internalType": "uint256",
          "name": "timestamp",
          "type": "uint256"
        },
        {
          "internalType": "address",
          "name": "pokedBy",
          "type": "address"
        }
      ],
      "stateMutability": "view",
      "type": "function",
      "constant": true
    },
    {
      "inputs": [
        {
          "internalType": "address",
          "name": "_pokeRecipient",
          "type": "address"
        }
      ],
      "name": "poke",
      "outputs": [],
      "stateMutability": "nonpayable",
      "type": "function"
    },
    {
      "inputs": [
        {
          "internalType": "address",
          "name": "_addr",
          "type": "address"
        }
      ],
      "name": "viewPokes",
      "outputs": [
        {
          "components": [
            {
              "internalType": "uint256",
              "name": "timestamp",
              "type": "uint256"
            },
            {
              "internalType": "address",
              "name": "pokedBy",
              "type": "address"
            }
          ],
          "internalType": "struct PokePoke.Poke[]",
          "name": "",
          "type": "tuple[]"
        }
      ],
      "stateMutability": "view",
      "type": "function",
      "constant": true
    }
  ],
  "bytecode": "0x608060405234801561001057600080fd5b506105aa806100206000396000f3fe608060405234801561001057600080fd5b50600436106100415760003560e01c80637c10276b14610046578063b1a997ac14610077578063e877dbb014610093575b600080fd5b610060600480360381019061005b91906103a2565b6100c3565b60405161006e929190610400565b60405180910390f35b610091600480360381019061008c9190610429565b610124565b005b6100ad60048036038101906100a89190610429565b61020c565b6040516100ba9190610552565b60405180910390f35b600060205281600052604060002081815481106100df57600080fd5b9060005260206000209060020201600091509150508060000154908060010160009054906101000a900473ffffffffffffffffffffffffffffffffffffffff16905082565b6000808273ffffffffffffffffffffffffffffffffffffffff1673ffffffffffffffffffffffffffffffffffffffff16815260200190815260200160002060405180604001604052804281526020013373ffffffffffffffffffffffffffffffffffffffff1681525090806001815401808255809150506001900390600052602060002090600202016000909190919091506000820151816000015560208201518160010160006101000a81548173ffffffffffffffffffffffffffffffffffffffff021916908373ffffffffffffffffffffffffffffffffffffffff160217905550505050565b60606000808373ffffffffffffffffffffffffffffffffffffffff1673ffffffffffffffffffffffffffffffffffffffff168152602001908152602001600020805480602002602001604051908101604052809291908181526020016000905b828210156102fe5783829060005260206000209060020201604051806040016040529081600082015481526020016001820160009054906101000a900473ffffffffffffffffffffffffffffffffffffffff1673ffffffffffffffffffffffffffffffffffffffff1673ffffffffffffffffffffffffffffffffffffffff16815250508152602001906001019061026c565b505050509050919050565b600080fd5b600073ffffffffffffffffffffffffffffffffffffffff82169050919050565b60006103398261030e565b9050919050565b6103498161032e565b811461035457600080fd5b50565b60008135905061036681610340565b92915050565b6000819050919050565b61037f8161036c565b811461038a57600080fd5b50565b60008135905061039c81610376565b92915050565b600080604083850312156103b9576103b8610309565b5b60006103c785828601610357565b92505060206103d88582860161038d565b9150509250929050565b6103eb8161036c565b82525050565b6103fa8161032e565b82525050565b600060408201905061041560008301856103e2565b61042260208301846103f1565b9392505050565b60006020828403121561043f5761043e610309565b5b600061044d84828501610357565b91505092915050565b600081519050919050565b600082825260208201905092915050565b6000819050602082019050919050565b61048b8161036c565b82525050565b61049a8161032e565b82525050565b6040820160008201516104b66000850182610482565b5060208201516104c96020850182610491565b50505050565b60006104db83836104a0565b60408301905092915050565b6000602082019050919050565b60006104ff82610456565b6105098185610461565b935061051483610472565b8060005b8381101561054557815161052c88826104cf565b9750610537836104e7565b925050600181019050610518565b5085935050505092915050565b6000602082019050818103600083015261056c81846104f4565b90509291505056fea264697066735822122044b38d01ca59be4a942fd58432fdcda2658b81a33fe835f7ffd0b3841f2d88ab64736f6c63430008090033",
  "immutableReferences": {},
  "source": "// SPDX-License-Identifier: MIT\r\npragma solidity >=0.7.0 <0.9.0;\r\n\r\n/**\r\n * @title A framework for decentralized poking\r\n * @author Levi Hicks\r\n */\r\ncontract PokePoke {\r\n    struct Poke {\r\n        uint timestamp; // block timestamp of the moment the poke occurred\r\n        address pokedBy; // the sender of the poke\r\n    }\r\n\r\n    mapping(address => Poke[]) public pokes;\r\n    \r\n    /// @notice Pokes an account\r\n    /// @param _pokeRecipient The recipient of the poke\r\n    function poke(address _pokeRecipient) public {\r\n        pokes[_pokeRecipient].push(Poke(block.timestamp, msg.sender));\r\n    }\r\n    \r\n    /// @notice Returns array of pokes received for an address\r\n    /// @param _addr The address to view pokes for\r\n    /// @return The array of pokes received\r\n    function viewPokes(address _addr) view public returns (Poke[] memory) {\r\n        return pokes[_addr];\r\n    }\r\n}",
  "sourcePath": "C:\\Users\\lvhic\\Documents\\webApps\\poke-poke-contracts\\contracts\\PokePoke.sol",
  "compiler": {
    "name": "solc",
    "version": "0.8.9+commit.e5eed63a.Emscripten.clang"
  },
  "schemaVersion": "3.4.3",
  "updatedAt": "2021-11-17T05:17:49.637Z",
  "networkType": "ethereum",
  "devdoc": {
    "author": "Levi Hicks",
    "kind": "dev",
    "methods": {
      "poke(address)": {
        "params": {
          "_pokeRecipient": "The recipient of the poke"
        }
      },
      "viewPokes(address)": {
        "params": {
          "_addr": "The address to view pokes for"
        },
        "returns": {
          "_0": "The array of pokes received"
        }
      }
    },
    "title": "A framework for decentralized poking",
    "version": 1
  },
  "userdoc": {
    "kind": "user",
    "methods": {
      "poke(address)": {
        "notice": "Pokes an account"
      },
      "viewPokes(address)": {
        "notice": "Returns array of pokes received for an address"
      }
    },
    "version": 1
  }
}